{
  "address": "0x8E223D1e0883C0AFCb0D09ab9D63611E536305d9",
  "abi": [
    {
      "inputs": [
        {
          "internalType": "address",
          "name": "priceFeedAddress",
          "type": "address"
        }
      ],
      "stateMutability": "nonpayable",
      "type": "constructor"
    },
    {
      "inputs": [],
      "name": "NotOwner",
      "type": "error"
    },
    {
      "stateMutability": "payable",
      "type": "fallback"
    },
    {
      "inputs": [],
      "name": "MINIMUM_USD",
      "outputs": [
        {
          "internalType": "uint256",
          "name": "",
          "type": "uint256"
        }
      ],
      "stateMutability": "view",
      "type": "function"
    },
    {
      "inputs": [
        {
          "internalType": "address",
          "name": "",
          "type": "address"
        }
      ],
      "name": "addressToAmountFunded",
      "outputs": [
        {
          "internalType": "uint256",
          "name": "",
          "type": "uint256"
        }
      ],
      "stateMutability": "view",
      "type": "function"
    },
    {
      "inputs": [],
      "name": "fund",
      "outputs": [],
      "stateMutability": "payable",
      "type": "function"
    },
    {
      "inputs": [
        {
          "internalType": "uint256",
          "name": "",
          "type": "uint256"
        }
      ],
      "name": "funders",
      "outputs": [
        {
          "internalType": "address",
          "name": "",
          "type": "address"
        }
      ],
      "stateMutability": "view",
      "type": "function"
    },
    {
      "inputs": [],
      "name": "getVersion",
      "outputs": [
        {
          "internalType": "uint256",
          "name": "",
          "type": "uint256"
        }
      ],
      "stateMutability": "view",
      "type": "function"
    },
    {
      "inputs": [],
      "name": "i_owner",
      "outputs": [
        {
          "internalType": "address",
          "name": "",
          "type": "address"
        }
      ],
      "stateMutability": "view",
      "type": "function"
    },
    {
      "inputs": [],
      "name": "priceFeed",
      "outputs": [
        {
          "internalType": "contract AggregatorV3Interface",
          "name": "",
          "type": "address"
        }
      ],
      "stateMutability": "view",
      "type": "function"
    },
    {
      "inputs": [],
      "name": "withdraw",
      "outputs": [],
      "stateMutability": "nonpayable",
      "type": "function"
    },
    {
      "stateMutability": "payable",
      "type": "receive"
    }
  ],
  "transactionHash": "0x96c91216bddbe62ce31c30f5fe174c48843dcb4860176e9ac0f6480603bdf78f",
  "args": [
    "0x694AA1769357215DE4FAC081bf1f309aDC325306"
  ],
  "numDeployments": 1,
  "solcInputHash": "4428bf0f2b03e1f967bf6a8879bc29d8",
  "bytecode": "0x60806040523480156200001157600080fd5b50604051620010f0380380620010f083398181016040528101906200003791906200012a565b33600260006101000a81548173ffffffffffffffffffffffffffffffffffffffff021916908373ffffffffffffffffffffffffffffffffffffffff16021790555080600360006101000a81548173ffffffffffffffffffffffffffffffffffffffff021916908373ffffffffffffffffffffffffffffffffffffffff160217905550506200015c565b600080fd5b600073ffffffffffffffffffffffffffffffffffffffff82169050919050565b6000620000f282620000c5565b9050919050565b6200010481620000e5565b81146200011057600080fd5b50565b6000815190506200012481620000f9565b92915050565b600060208284031215620001435762000142620000c0565b5b6000620001538482850162000113565b91505092915050565b610f84806200016c6000396000f3fe60806040526004361061007f5760003560e01c8063741bef1a1161004e578063741bef1a14610142578063b60d42881461016d578063dba6335f14610177578063dc0d3dff146101a25761008e565b80630d8e6e2c146100985780633ccfd60b146100c35780633e47d6f3146100da5780636b69a592146101175761008e565b3661008e5761008c6101df565b005b6100966101df565b005b3480156100a457600080fd5b506100ad610319565b6040516100ba9190610845565b60405180910390f35b3480156100cf57600080fd5b506100d86103b7565b005b3480156100e657600080fd5b5061010160048036038101906100fc91906108c3565b6105f9565b60405161010e9190610845565b60405180910390f35b34801561012357600080fd5b5061012c610611565b6040516101399190610845565b60405180910390f35b34801561014e57600080fd5b5061015761061e565b604051610164919061094f565b60405180910390f35b6101756101df565b005b34801561018357600080fd5b5061018c610644565b6040516101999190610979565b60405180910390f35b3480156101ae57600080fd5b506101c960048036038101906101c491906109c0565b61066a565b6040516101d69190610979565b60405180910390f35b6802b5e3af16b188000061021e600360009054906101000a900473ffffffffffffffffffffffffffffffffffffffff16346106a990919063ffffffff16565b101561025f576040517f08c379a000000000000000000000000000000000000000000000000000000000815260040161025690610a4a565b60405180910390fd5b346000803373ffffffffffffffffffffffffffffffffffffffff1673ffffffffffffffffffffffffffffffffffffffff16815260200190815260200160002060008282546102ad9190610a99565b925050819055506001339080600181540180825580915050600190039060005260206000200160009091909190916101000a81548173ffffffffffffffffffffffffffffffffffffffff021916908373ffffffffffffffffffffffffffffffffffffffff160217905550565b60008073694aa1769357215de4fac081bf1f309adc32530690508073ffffffffffffffffffffffffffffffffffffffff166354fd4d506040518163ffffffff1660e01b815260040160206040518083038186803b15801561037957600080fd5b505afa15801561038d573d6000803e3d6000fd5b505050506040513d601f19601f820116820180604052508101906103b19190610b04565b91505090565b600260009054906101000a900473ffffffffffffffffffffffffffffffffffffffff1673ffffffffffffffffffffffffffffffffffffffff163373ffffffffffffffffffffffffffffffffffffffff161461043e576040517f30cd747100000000000000000000000000000000000000000000000000000000815260040160405180910390fd5b60005b6001805490508110156104e95760006001828154811061046457610463610b31565b5b9060005260206000200160009054906101000a900473ffffffffffffffffffffffffffffffffffffffff16905060008060008373ffffffffffffffffffffffffffffffffffffffff1673ffffffffffffffffffffffffffffffffffffffff168152602001908152602001600020819055505080806104e190610b60565b915050610441565b50600067ffffffffffffffff81111561050557610504610ba9565b5b6040519080825280602002602001820160405280156105335781602001602082028036833780820191505090505b5060019080519060200190610549929190610785565b5060003373ffffffffffffffffffffffffffffffffffffffff164760405161057090610c09565b60006040518083038185875af1925050503d80600081146105ad576040519150601f19603f3d011682016040523d82523d6000602084013e6105b2565b606091505b50509050806105f6576040517f08c379a00000000000000000000000000000000000000000000000000000000081526004016105ed90610c6a565b60405180910390fd5b50565b60006020528060005260406000206000915090505481565b6802b5e3af16b188000081565b600360009054906101000a900473ffffffffffffffffffffffffffffffffffffffff1681565b600260009054906101000a900473ffffffffffffffffffffffffffffffffffffffff1681565b6001818154811061067a57600080fd5b906000526020600020016000915054906101000a900473ffffffffffffffffffffffffffffffffffffffff1681565b6000806106b5836106e5565b90506000670de0b6b3a764000085836106ce9190610c8a565b6106d89190610d13565b9050809250505092915050565b6000808273ffffffffffffffffffffffffffffffffffffffff1663feaf968c6040518163ffffffff1660e01b815260040160a06040518083038186803b15801561072e57600080fd5b505afa158015610742573d6000803e3d6000fd5b505050506040513d601f19601f820116820180604052508101906107669190610dbc565b5050509150506402540be4008161077d9190610e37565b915050919050565b8280548282559060005260206000209081019282156107fe579160200282015b828111156107fd5782518260006101000a81548173ffffffffffffffffffffffffffffffffffffffff021916908373ffffffffffffffffffffffffffffffffffffffff160217905550916020019190600101906107a5565b5b50905061080b919061080f565b5090565b5b80821115610828576000816000905550600101610810565b5090565b6000819050919050565b61083f8161082c565b82525050565b600060208201905061085a6000830184610836565b92915050565b600080fd5b600073ffffffffffffffffffffffffffffffffffffffff82169050919050565b600061089082610865565b9050919050565b6108a081610885565b81146108ab57600080fd5b50565b6000813590506108bd81610897565b92915050565b6000602082840312156108d9576108d8610860565b5b60006108e7848285016108ae565b91505092915050565b6000819050919050565b600061091561091061090b84610865565b6108f0565b610865565b9050919050565b6000610927826108fa565b9050919050565b60006109398261091c565b9050919050565b6109498161092e565b82525050565b60006020820190506109646000830184610940565b92915050565b61097381610885565b82525050565b600060208201905061098e600083018461096a565b92915050565b61099d8161082c565b81146109a857600080fd5b50565b6000813590506109ba81610994565b92915050565b6000602082840312156109d6576109d5610860565b5b60006109e4848285016109ab565b91505092915050565b600082825260208201905092915050565b7f596f75206e65656420746f207370656e64206d6f726520455448210000000000600082015250565b6000610a34601b836109ed565b9150610a3f826109fe565b602082019050919050565b60006020820190508181036000830152610a6381610a27565b9050919050565b7f4e487b7100000000000000000000000000000000000000000000000000000000600052601160045260246000fd5b6000610aa48261082c565b9150610aaf8361082c565b9250827fffffffffffffffffffffffffffffffffffffffffffffffffffffffffffffffff03821115610ae457610ae3610a6a565b5b828201905092915050565b600081519050610afe81610994565b92915050565b600060208284031215610b1a57610b19610860565b5b6000610b2884828501610aef565b91505092915050565b7f4e487b7100000000000000000000000000000000000000000000000000000000600052603260045260246000fd5b6000610b6b8261082c565b91507fffffffffffffffffffffffffffffffffffffffffffffffffffffffffffffffff821415610b9e57610b9d610a6a565b5b600182019050919050565b7f4e487b7100000000000000000000000000000000000000000000000000000000600052604160045260246000fd5b600081905092915050565b50565b6000610bf3600083610bd8565b9150610bfe82610be3565b600082019050919050565b6000610c1482610be6565b9150819050919050565b7f43616c6c206661696c6564000000000000000000000000000000000000000000600082015250565b6000610c54600b836109ed565b9150610c5f82610c1e565b602082019050919050565b60006020820190508181036000830152610c8381610c47565b9050919050565b6000610c958261082c565b9150610ca08361082c565b9250817fffffffffffffffffffffffffffffffffffffffffffffffffffffffffffffffff0483118215151615610cd957610cd8610a6a565b5b828202905092915050565b7f4e487b7100000000000000000000000000000000000000000000000000000000600052601260045260246000fd5b6000610d1e8261082c565b9150610d298361082c565b925082610d3957610d38610ce4565b5b828204905092915050565b600069ffffffffffffffffffff82169050919050565b610d6381610d44565b8114610d6e57600080fd5b50565b600081519050610d8081610d5a565b92915050565b6000819050919050565b610d9981610d86565b8114610da457600080fd5b50565b600081519050610db681610d90565b92915050565b600080600080600060a08688031215610dd857610dd7610860565b5b6000610de688828901610d71565b9550506020610df788828901610da7565b9450506040610e0888828901610aef565b9350506060610e1988828901610aef565b9250506080610e2a88828901610d71565b9150509295509295909350565b6000610e4282610d86565b9150610e4d83610d86565b9250827f7fffffffffffffffffffffffffffffffffffffffffffffffffffffffffffffff0482116000841360008413161615610e8c57610e8b610a6a565b5b817f80000000000000000000000000000000000000000000000000000000000000000583126000841260008413161615610ec957610ec8610a6a565b5b827f80000000000000000000000000000000000000000000000000000000000000000582126000841360008412161615610f0657610f05610a6a565b5b827f7fffffffffffffffffffffffffffffffffffffffffffffffffffffffffffffff0582126000841260008412161615610f4357610f42610a6a565b5b82820290509291505056fea2646970667358221220e54efa0961be0042ff72df45c831c8f55fdbce4a97708ee25f6668bef5ae6fc364736f6c63430008080033",
  "devdoc": {
    "kind": "dev",
    "methods": {},
    "version": 1
  },
  "userdoc": {
    "kind": "user",
    "methods": {},
    "version": 1
  },
  "storageLayout": {
    "storage": [
      {
        "astId": 58,
        "contract": "contracts/FundMe.sol:FundMe",
        "label": "addressToAmountFunded",
        "offset": 0,
        "slot": "0",
        "type": "t_mapping(t_address,t_uint256)"
      },
      {
        "astId": 61,
        "contract": "contracts/FundMe.sol:FundMe",
        "label": "funders",
        "offset": 0,
        "slot": "1",
        "type": "t_array(t_address)dyn_storage"
      },
      {
        "astId": 63,
        "contract": "contracts/FundMe.sol:FundMe",
        "label": "i_owner",
        "offset": 0,
        "slot": "2",
        "type": "t_address"
      },
      {
        "astId": 73,
        "contract": "contracts/FundMe.sol:FundMe",
        "label": "priceFeed",
        "offset": 0,
        "slot": "3",
        "type": "t_contract(AggregatorV3Interface)45"
      }
    ],
    "types": {
      "t_address": {
        "encoding": "inplace",
        "label": "address",
        "numberOfBytes": "20"
      },
      "t_array(t_address)dyn_storage": {
        "base": "t_address",
        "encoding": "dynamic_array",
        "label": "address[]",
        "numberOfBytes": "32"
      },
      "t_contract(AggregatorV3Interface)45": {
        "encoding": "inplace",
        "label": "contract AggregatorV3Interface",
        "numberOfBytes": "20"
      },
      "t_mapping(t_address,t_uint256)": {
        "encoding": "mapping",
        "key": "t_address",
        "label": "mapping(address => uint256)",
        "numberOfBytes": "32",
        "value": "t_uint256"
      },
      "t_uint256": {
        "encoding": "inplace",
        "label": "uint256",
        "numberOfBytes": "32"
      }
    }
  }
}